:02000000F829DD
:06000600000000000800EC
:10000C00073084000008000883120313F0007012FC
:06001C00700880000800DE
:10002200073084000008000883120313F000F01167
:06003200700880000800C8
:0E0038008312031321088A00200882000800AA
:1000460083160313871507168312241087192F2882
:0A005600241C2E282F28292808005A
:10006000831203137008F100F0010830FC007108DE
:10007000F40C03183F28FC0B3828F101003403105E
:100080004428F40C0318F107F10CF00CFC0B412888
:02009000080066
:1000920006208316071203200320871583122410DB
:1000A20087195728241C5628572851280320032033
:1000B20003200320032003200320032083160716B6
:0600C200032003200800EA
:1000C800013083120313AC000030AD008030AA0069
:1000D800AB012A082B0403199A28032003200320C4
:1000E80003201120831687110320032083122A0876
:1000F8002905F00000302B05F10070087104031980
:100108008828831607168B280620831607120320D3
:10011800032087158312241087199628241C9528F4
:1001280096289028AB0CAA0CAB136D28AC01AD0136
:1001380003200320112083168711032003200716AC
:100148000320032003200320871583122410871916
:10015800B128241CB028B128AB28AC01AD0103207C
:100168000320071EB8282C14032003200320032093
:10017800032003200320032003200320032003205F
:100188000320032003200320112083168711062053
:0C0198008316071283122C08F0000800E8
:1001A4008316031307160320032087150320032057
:1001B40006208316071203200320112083168711BB
:0201C400080031
:1001C60083120313AB01AC018030AD000030AE00EA
:1001D6002D082E0403190E29032003208316071663
:1001E600032003208715831224108719FE28241C58
:1001F600FD28FE28F828071E04292D08AB042E0822
:10020600AC04032003201120831687118312AE0C41
:10021600AD0CAE13EB2883160716032003208312BA
:1002260029082A0403191A29062083160712831699
:100236000320032087158312241087192629241CDE
:10024600252926292029032003201120831687111A
:100256000320032006208316071283122B08F000C2
:0202660008008E
:100268001C208A110A128000840AA00A0319A10A14
:08027800F003031D3429080006
:10028000D220A0308312A90064200230A90064208B
:10029000D220A1308312A90064200130A9000030CF
:1002A000AA00E3207008A6000130A9000030AA00CF
:1002B000E3207008A7000130A9000030AA00E32065
:1002C0007008A8000130A9000030AA00E3207008DF
:1002D000A500A901AA01E3207008A2004920080096
:1002E000F030831203132605F2007208F000F00CC0
:1002F000F013F00CF013F00CF013F00CF0130A30C4
:10030000F40030200F302605F10071087007A600B8
:10031000F0302705F2007208F000F00CF013F00C3A
:10032000F013F00CF013F00CF0130A30F40030204E
:100330000F302705F10071087007A700F03028057D
:10034000F2007208F000F00CF013F00CF013F00C57
:10035000F013F00CF0130A30F40030200F302805B1
:10036000F10071087007A800C0302505A300063011
:10037000F00070080319C029A30CA313FF3EBA298B
:1003800030302505F2007208F000F00CF013F00C8C
:10039000F013F00CF013F00CF0130A30F4003020DE
:1003A0000F302505F10071087007A50010302205F7
:1003B000F2007208F000F00CF013F00CF013F00CE7
:1003C000F013F00CF0130A30F40030200F30220547
:0A03D000F10071087007A200080098
:1003DA00831603138601FF3083128600FF308316CB
:0603EA008600232008003C
:0A03F000ED2140217021F929FC29BC
:02400E004A2F37
:00000001FF
